{
  "_format": "hh-sol-artifact-1",
  "contractName": "WitnessAnchorRegistry",
  "sourceName": "contracts/WitnessAnchorRegistry.sol",
  "abi": [
    {
      "anonymous": false,
      "inputs": [
        {
          "indexed": true,
          "internalType": "uint256",
          "name": "batchId",
          "type": "uint256"
        },
        {
          "indexed": true,
          "internalType": "bytes32",
          "name": "root",
          "type": "bytes32"
        },
        {
          "indexed": false,
          "internalType": "uint256",
          "name": "timestamp",
          "type": "uint256"
        },
        {
          "indexed": false,
          "internalType": "uint256",
          "name": "blockNumber",
          "type": "uint256"
        }
      ],
      "name": "Anchored",
      "type": "event"
    },
    {
      "inputs": [
        {
          "internalType": "bytes32",
          "name": "merkleRoot",
          "type": "bytes32"
        }
      ],
      "name": "anchor",
      "outputs": [
        {
          "internalType": "uint256",
          "name": "batchId",
          "type": "uint256"
        }
      ],
      "stateMutability": "nonpayable",
      "type": "function"
    },
    {
      "inputs": [],
      "name": "batchCount",
      "outputs": [
        {
          "internalType": "uint256",
          "name": "",
          "type": "uint256"
        }
      ],
      "stateMutability": "view",
      "type": "function"
    },
    {
      "inputs": [
        {
          "internalType": "uint256",
          "name": "",
          "type": "uint256"
        }
      ],
      "name": "blockNumbers",
      "outputs": [
        {
          "internalType": "uint256",
          "name": "",
          "type": "uint256"
        }
      ],
      "stateMutability": "view",
      "type": "function"
    },
    {
      "inputs": [
        {
          "internalType": "uint256",
          "name": "batchId",
          "type": "uint256"
        }
      ],
      "name": "getBatch",
      "outputs": [
        {
          "internalType": "bytes32",
          "name": "root",
          "type": "bytes32"
        },
        {
          "internalType": "uint256",
          "name": "timestamp",
          "type": "uint256"
        },
        {
          "internalType": "uint256",
          "name": "blockNum",
          "type": "uint256"
        }
      ],
      "stateMutability": "view",
      "type": "function"
    },
    {
      "inputs": [
        {
          "internalType": "uint256",
          "name": "",
          "type": "uint256"
        }
      ],
      "name": "roots",
      "outputs": [
        {
          "internalType": "bytes32",
          "name": "",
          "type": "bytes32"
        }
      ],
      "stateMutability": "view",
      "type": "function"
    },
    {
      "inputs": [
        {
          "internalType": "uint256",
          "name": "",
          "type": "uint256"
        }
      ],
      "name": "timestamps",
      "outputs": [
        {
          "internalType": "uint256",
          "name": "",
          "type": "uint256"
        }
      ],
      "stateMutability": "view",
      "type": "function"
    },
    {
      "inputs": [
        {
          "internalType": "uint256",
          "name": "batchId",
          "type": "uint256"
        },
        {
          "internalType": "bytes32",
          "name": "expectedRoot",
          "type": "bytes32"
        }
      ],
      "name": "verify",
      "outputs": [
        {
          "internalType": "bool",
          "name": "",
          "type": "bool"
        }
      ],
      "stateMutability": "view",
      "type": "function"
    }
  ],
  "bytecode": "0x608060405234801561001057600080fd5b506105c2806100206000396000f3fe608060405234801561001057600080fd5b506004361061007d5760003560e01c80638bc33af31161005b5780638bc33af314610102578063c2b40ae414610132578063cd8bff3314610162578063eecdf927146101925761007d565b806306f13056146100825780631d97ce31146100a05780635ac44282146100d0575b600080fd5b61008a6101c2565b6040516100979190610339565b60405180910390f35b6100ba60048036038101906100b591906103bb565b6101c8565b6040516100c79190610416565b60405180910390f35b6100ea60048036038101906100e59190610431565b6101e8565b6040516100f99392919061046d565b60405180910390f35b61011c60048036038101906101179190610431565b610236565b6040516101299190610339565b60405180910390f35b61014c60048036038101906101479190610431565b61024e565b60405161015991906104a4565b60405180910390f35b61017c60048036038101906101779190610431565b610266565b6040516101899190610339565b60405180910390f35b6101ac60048036038101906101a791906104bf565b61027e565b6040516101b99190610339565b60405180910390f35b60005481565b600081600160008581526020019081526020016000205414905092915050565b60008060006001600085815260200190815260200160002054600260008681526020019081526020016000205460036000878152602001908152602001600020549250925092509193909250565b60026020528060005260406000206000915090505481565b60016020528060005260406000206000915090505481565b60036020528060005260406000206000915090505481565b60008060008154809291906102929061051b565b91905055905081600160008381526020019081526020016000208190555042600260008381526020019081526020016000208190555043600360008381526020019081526020016000208190555081817f4be48ba87b7b62bb34ea6cd6df6629196f9008660355ad313b3fe961fa5fc6bd4243604051610313929190610563565b60405180910390a3919050565b6000819050919050565b61033381610320565b82525050565b600060208201905061034e600083018461032a565b92915050565b600080fd5b61036281610320565b811461036d57600080fd5b50565b60008135905061037f81610359565b92915050565b6000819050919050565b61039881610385565b81146103a357600080fd5b50565b6000813590506103b58161038f565b92915050565b600080604083850312156103d2576103d1610354565b5b60006103e085828601610370565b92505060206103f1858286016103a6565b9150509250929050565b60008115159050919050565b610410816103fb565b82525050565b600060208201905061042b6000830184610407565b92915050565b60006020828403121561044757610446610354565b5b600061045584828501610370565b91505092915050565b61046781610385565b82525050565b6000606082019050610482600083018661045e565b61048f602083018561032a565b61049c604083018461032a565b949350505050565b60006020820190506104b9600083018461045e565b92915050565b6000602082840312156104d5576104d4610354565b5b60006104e3848285016103a6565b91505092915050565b7f4e487b7100000000000000000000000000000000000000000000000000000000600052601160045260246000fd5b600061052682610320565b91507fffffffffffffffffffffffffffffffffffffffffffffffffffffffffffffffff8203610558576105576104ec565b5b600182019050919050565b6000604082019050610578600083018561032a565b610585602083018461032a565b939250505056fea2646970667358221220ff7192ec3ec9d6d9ed255d8e913ff43c99cde40e73e6b78047e4b28e9393049464736f6c63430008140033",
  "linkReferences": {},
  "deployedLinkReferences": {}
}