{
  "_format": "hh-sol-artifact-1",
  "contractName": "WitnessAnchorRegistry",
  "sourceName": "contracts/WitnessAnchorRegistry.sol",
  "abi": [
    {
      "inputs": [],
      "stateMutability": "nonpayable",
      "type": "constructor"
    },
    {
      "anonymous": false,
      "inputs": [
        {
          "indexed": true,
          "internalType": "uint256",
          "name": "batchId",
          "type": "uint256"
        },
        {
          "indexed": true,
          "internalType": "bytes32",
          "name": "root",
          "type": "bytes32"
        },
        {
          "indexed": false,
          "internalType": "uint256",
          "name": "timestamp",
          "type": "uint256"
        },
        {
          "indexed": false,
          "internalType": "uint256",
          "name": "blockNumber",
          "type": "uint256"
        }
      ],
      "name": "Anchored",
      "type": "event"
    },
    {
      "anonymous": false,
      "inputs": [
        {
          "indexed": true,
          "internalType": "address",
          "name": "witness",
          "type": "address"
        }
      ],
      "name": "WitnessAdded",
      "type": "event"
    },
    {
      "anonymous": false,
      "inputs": [
        {
          "indexed": true,
          "internalType": "address",
          "name": "witness",
          "type": "address"
        }
      ],
      "name": "WitnessRemoved",
      "type": "event"
    },
    {
      "inputs": [
        {
          "internalType": "address",
          "name": "witness",
          "type": "address"
        }
      ],
      "name": "addWitness",
      "outputs": [],
      "stateMutability": "nonpayable",
      "type": "function"
    },
    {
      "inputs": [
        {
          "internalType": "bytes32",
          "name": "merkleRoot",
          "type": "bytes32"
        }
      ],
      "name": "anchor",
      "outputs": [
        {
          "internalType": "uint256",
          "name": "batchId",
          "type": "uint256"
        }
      ],
      "stateMutability": "nonpayable",
      "type": "function"
    },
    {
      "inputs": [
        {
          "internalType": "address",
          "name": "",
          "type": "address"
        }
      ],
      "name": "authorizedWitnesses",
      "outputs": [
        {
          "internalType": "bool",
          "name": "",
          "type": "bool"
        }
      ],
      "stateMutability": "view",
      "type": "function"
    },
    {
      "inputs": [],
      "name": "batchCount",
      "outputs": [
        {
          "internalType": "uint256",
          "name": "",
          "type": "uint256"
        }
      ],
      "stateMutability": "view",
      "type": "function"
    },
    {
      "inputs": [
        {
          "internalType": "uint256",
          "name": "",
          "type": "uint256"
        }
      ],
      "name": "blockNumbers",
      "outputs": [
        {
          "internalType": "uint256",
          "name": "",
          "type": "uint256"
        }
      ],
      "stateMutability": "view",
      "type": "function"
    },
    {
      "inputs": [
        {
          "internalType": "uint256",
          "name": "batchId",
          "type": "uint256"
        }
      ],
      "name": "getBatch",
      "outputs": [
        {
          "internalType": "bytes32",
          "name": "root",
          "type": "bytes32"
        },
        {
          "internalType": "uint256",
          "name": "timestamp",
          "type": "uint256"
        },
        {
          "internalType": "uint256",
          "name": "blockNum",
          "type": "uint256"
        }
      ],
      "stateMutability": "view",
      "type": "function"
    },
    {
      "inputs": [
        {
          "internalType": "address",
          "name": "witness",
          "type": "address"
        }
      ],
      "name": "isWitness",
      "outputs": [
        {
          "internalType": "bool",
          "name": "",
          "type": "bool"
        }
      ],
      "stateMutability": "view",
      "type": "function"
    },
    {
      "inputs": [],
      "name": "owner",
      "outputs": [
        {
          "internalType": "address",
          "name": "",
          "type": "address"
        }
      ],
      "stateMutability": "view",
      "type": "function"
    },
    {
      "inputs": [
        {
          "internalType": "address",
          "name": "witness",
          "type": "address"
        }
      ],
      "name": "removeWitness",
      "outputs": [],
      "stateMutability": "nonpayable",
      "type": "function"
    },
    {
      "inputs": [
        {
          "internalType": "uint256",
          "name": "",
          "type": "uint256"
        }
      ],
      "name": "roots",
      "outputs": [
        {
          "internalType": "bytes32",
          "name": "",
          "type": "bytes32"
        }
      ],
      "stateMutability": "view",
      "type": "function"
    },
    {
      "inputs": [
        {
          "internalType": "uint256",
          "name": "",
          "type": "uint256"
        }
      ],
      "name": "timestamps",
      "outputs": [
        {
          "internalType": "uint256",
          "name": "",
          "type": "uint256"
        }
      ],
      "stateMutability": "view",
      "type": "function"
    },
    {
      "inputs": [
        {
          "internalType": "uint256",
          "name": "batchId",
          "type": "uint256"
        },
        {
          "internalType": "bytes32",
          "name": "expectedRoot",
          "type": "bytes32"
        }
      ],
      "name": "verify",
      "outputs": [
        {
          "internalType": "bool",
          "name": "",
          "type": "bool"
        }
      ],
      "stateMutability": "view",
      "type": "function"
    }
  ],
  "bytecode": "0x608060405234801561001057600080fd5b50336000806101000a81548173ffffffffffffffffffffffffffffffffffffffff021916908373ffffffffffffffffffffffffffffffffffffffff16021790555060018060003373ffffffffffffffffffffffffffffffffffffffff1673ffffffffffffffffffffffffffffffffffffffff16815260200190815260200160002060006101000a81548160ff0219169083151502179055503373ffffffffffffffffffffffffffffffffffffffff167ff5944521c155e80db583372b9992336b6616b14dfb924a5cf6ef97b256d2803460405160405180910390a2610ebd806100fa6000396000f3fe608060405234801561001057600080fd5b50600436106100b45760003560e01c80638da5cb5b116100715780638da5cb5b146101b5578063c2b40ae4146101d3578063cd8bff3314610203578063ee2f13cd14610233578063eecdf9271461024f578063fa7643f41461027f576100b4565b806306f13056146100b95780631d97ce31146100d75780634bd00e741461010757806359e26be1146101375780635ac44282146101535780638bc33af314610185575b600080fd5b6100c16102af565b6040516100ce919061092c565b60405180910390f35b6100f160048036038101906100ec91906109ae565b6102b5565b6040516100fe9190610a09565b60405180910390f35b610121600480360381019061011c9190610a82565b6102d5565b60405161012e9190610a09565b60405180910390f35b610151600480360381019061014c9190610a82565b6102f5565b005b61016d60048036038101906101689190610aaf565b61051c565b60405161017c93929190610aeb565b60405180910390f35b61019f600480360381019061019a9190610aaf565b61056a565b6040516101ac919061092c565b60405180910390f35b6101bd610582565b6040516101ca9190610b31565b60405180910390f35b6101ed60048036038101906101e89190610aaf565b6105a6565b6040516101fa9190610b4c565b60405180910390f35b61021d60048036038101906102189190610aaf565b6105be565b60405161022a919061092c565b60405180910390f35b61024d60048036038101906102489190610a82565b6105d6565b005b61026960048036038101906102649190610b67565b61078e565b604051610276919061092c565b60405180910390f35b61029960048036038101906102949190610a82565b6108bd565b6040516102a69190610a09565b60405180910390f35b60025481565b600081600360008581526020019081526020016000205414905092915050565b60016020528060005260406000206000915054906101000a900460ff1681565b60008054906101000a900473ffffffffffffffffffffffffffffffffffffffff1673ffffffffffffffffffffffffffffffffffffffff163373ffffffffffffffffffffffffffffffffffffffff1614610383576040517f08c379a000000000000000000000000000000000000000000000000000000000815260040161037a90610c17565b60405180910390fd5b600073ffffffffffffffffffffffffffffffffffffffff168173ffffffffffffffffffffffffffffffffffffffff16036103f2576040517f08c379a00000000000000000000000000000000000000000000000000000000081526004016103e990610c83565b60405180910390fd5b600160008273ffffffffffffffffffffffffffffffffffffffff1673ffffffffffffffffffffffffffffffffffffffff16815260200190815260200160002060009054906101000a900460ff161561047f576040517f08c379a000000000000000000000000000000000000000000000000000000000815260040161047690610cef565b60405180910390fd5b60018060008373ffffffffffffffffffffffffffffffffffffffff1673ffffffffffffffffffffffffffffffffffffffff16815260200190815260200160002060006101000a81548160ff0219169083151502179055508073ffffffffffffffffffffffffffffffffffffffff167ff5944521c155e80db583372b9992336b6616b14dfb924a5cf6ef97b256d2803460405160405180910390a250565b60008060006003600085815260200190815260200160002054600460008681526020019081526020016000205460056000878152602001908152602001600020549250925092509193909250565b60046020528060005260406000206000915090505481565b60008054906101000a900473ffffffffffffffffffffffffffffffffffffffff1681565b60036020528060005260406000206000915090505481565b60056020528060005260406000206000915090505481565b60008054906101000a900473ffffffffffffffffffffffffffffffffffffffff1673ffffffffffffffffffffffffffffffffffffffff163373ffffffffffffffffffffffffffffffffffffffff1614610664576040517f08c379a000000000000000000000000000000000000000000000000000000000815260040161065b90610c17565b60405180910390fd5b600160008273ffffffffffffffffffffffffffffffffffffffff1673ffffffffffffffffffffffffffffffffffffffff16815260200190815260200160002060009054906101000a900460ff166106f0576040517f08c379a00000000000000000000000000000000000000000000000000000000081526004016106e790610d5b565b60405180910390fd5b6000600160008373ffffffffffffffffffffffffffffffffffffffff1673ffffffffffffffffffffffffffffffffffffffff16815260200190815260200160002060006101000a81548160ff0219169083151502179055508073ffffffffffffffffffffffffffffffffffffffff167f8b5785dce93ca82765b1cc25cedcda1b501288cb23a1fd171c0091d83900f9bd60405160405180910390a250565b6000600160003373ffffffffffffffffffffffffffffffffffffffff1673ffffffffffffffffffffffffffffffffffffffff16815260200190815260200160002060009054906101000a900460ff1661081c576040517f08c379a000000000000000000000000000000000000000000000000000000000815260040161081390610dc7565b60405180910390fd5b6002600081548092919061082f90610e16565b91905055905081600360008381526020019081526020016000208190555042600460008381526020019081526020016000208190555043600560008381526020019081526020016000208190555081817f4be48ba87b7b62bb34ea6cd6df6629196f9008660355ad313b3fe961fa5fc6bd42436040516108b0929190610e5e565b60405180910390a3919050565b6000600160008373ffffffffffffffffffffffffffffffffffffffff1673ffffffffffffffffffffffffffffffffffffffff16815260200190815260200160002060009054906101000a900460ff169050919050565b6000819050919050565b61092681610913565b82525050565b6000602082019050610941600083018461091d565b92915050565b600080fd5b61095581610913565b811461096057600080fd5b50565b6000813590506109728161094c565b92915050565b6000819050919050565b61098b81610978565b811461099657600080fd5b50565b6000813590506109a881610982565b92915050565b600080604083850312156109c5576109c4610947565b5b60006109d385828601610963565b92505060206109e485828601610999565b9150509250929050565b60008115159050919050565b610a03816109ee565b82525050565b6000602082019050610a1e60008301846109fa565b92915050565b600073ffffffffffffffffffffffffffffffffffffffff82169050919050565b6000610a4f82610a24565b9050919050565b610a5f81610a44565b8114610a6a57600080fd5b50565b600081359050610a7c81610a56565b92915050565b600060208284031215610a9857610a97610947565b5b6000610aa684828501610a6d565b91505092915050565b600060208284031215610ac557610ac4610947565b5b6000610ad384828501610963565b91505092915050565b610ae581610978565b82525050565b6000606082019050610b006000830186610adc565b610b0d602083018561091d565b610b1a604083018461091d565b949350505050565b610b2b81610a44565b82525050565b6000602082019050610b466000830184610b22565b92915050565b6000602082019050610b616000830184610adc565b92915050565b600060208284031215610b7d57610b7c610947565b5b6000610b8b84828501610999565b91505092915050565b600082825260208201905092915050565b7f4f6e6c79206f776e65722063616e2063616c6c20746869732066756e6374696f60008201527f6e00000000000000000000000000000000000000000000000000000000000000602082015250565b6000610c01602183610b94565b9150610c0c82610ba5565b604082019050919050565b60006020820190508181036000830152610c3081610bf4565b9050919050565b7f496e76616c6964207769746e6573732061646472657373000000000000000000600082015250565b6000610c6d601783610b94565b9150610c7882610c37565b602082019050919050565b60006020820190508181036000830152610c9c81610c60565b9050919050565b7f416c72656164792061207769746e657373000000000000000000000000000000600082015250565b6000610cd9601183610b94565b9150610ce482610ca3565b602082019050919050565b60006020820190508181036000830152610d0881610ccc565b9050919050565b7f4e6f742061207769746e65737300000000000000000000000000000000000000600082015250565b6000610d45600d83610b94565b9150610d5082610d0f565b602082019050919050565b60006020820190508181036000830152610d7481610d38565b9050919050565b7f4e6f7420616e20617574686f72697a6564207769746e65737300000000000000600082015250565b6000610db1601983610b94565b9150610dbc82610d7b565b602082019050919050565b60006020820190508181036000830152610de081610da4565b9050919050565b7f4e487b7100000000000000000000000000000000000000000000000000000000600052601160045260246000fd5b6000610e2182610913565b91507fffffffffffffffffffffffffffffffffffffffffffffffffffffffffffffffff8203610e5357610e52610de7565b5b600182019050919050565b6000604082019050610e73600083018561091d565b610e80602083018461091d565b939250505056fea2646970667358221220d4282dab704c281bb7bf873c3e70d92b3e320199c9936fe30384af46306c125c64736f6c63430008140033",
  "linkReferences": {},
  "deployedLinkReferences": {}
}